{
	"data": {
		"bytecode": {
			"linkReferences": {},
			"object": "608060405234801561001057600080fd5b5033600260006101000a81548173ffffffffffffffffffffffffffffffffffffffff021916908373ffffffffffffffffffffffffffffffffffffffff1602179055506105dc806100616000396000f3fe60806040526004361061007b5760003560e01c80636d26ec181161004e5780636d26ec18146101285780638da5cb5b14610132578063ac4460021461015d578063ce0617ec146101745761007b565b80630adec93c146100805780630ff8d8a5146100a957806312065fe0146100d257806352a90c42146100fd575b600080fd5b34801561008c57600080fd5b506100a760048036038101906100a291906103b9565b61019f565b005b3480156100b557600080fd5b506100d060048036038101906100cb91906103b9565b610280565b005b3480156100de57600080fd5b506100e76102dc565b6040516100f49190610462565b60405180910390f35b34801561010957600080fd5b506101126102e4565b60405161011f9190610462565b60405180910390f35b6101306102ea565b005b34801561013e57600080fd5b50610147610317565b6040516101549190610427565b60405180910390f35b34801561016957600080fd5b5061017261033d565b005b34801561018057600080fd5b5061018961039e565b6040516101969190610462565b60405180910390f35b3373ffffffffffffffffffffffffffffffffffffffff16600260009054906101000a900473ffffffffffffffffffffffffffffffffffffffff1673ffffffffffffffffffffffffffffffffffffffff161461022f576040517f08c379a000000000000000000000000000000000000000000000000000000000815260040161022690610442565b60405180910390fd5b8073ffffffffffffffffffffffffffffffffffffffff166108fc6102516102dc565b9081150290604051600060405180830381858888f1935050505015801561027c573d6000803e3d6000fd5b5050565b4260015410156102d9578073ffffffffffffffffffffffffffffffffffffffff166108fc6102ac6102dc565b9081150290604051600060405180830381858888f193505050501580156102d7573d6000803e3d6000fd5b505b50565b600047905090565b60005481565b346000808282546102fb919061048e565b92505081905550603c4261030f919061048e565b600181905550565b600260009054906101000a900473ffffffffffffffffffffffffffffffffffffffff1681565b42600154101561039c5760003390508073ffffffffffffffffffffffffffffffffffffffff166108fc61036e6102dc565b9081150290604051600060405180830381858888f19350505050158015610399573d6000803e3d6000fd5b50505b565b60015481565b6000813590506103b38161058f565b92915050565b6000602082840312156103cf576103ce610561565b5b60006103dd848285016103a4565b91505092915050565b6103ef816104e4565b82525050565b600061040260148361047d565b915061040d82610566565b602082019050919050565b61042181610528565b82525050565b600060208201905061043c60008301846103e6565b92915050565b6000602082019050818103600083015261045b816103f5565b9050919050565b60006020820190506104776000830184610418565b92915050565b600082825260208201905092915050565b600061049982610528565b91506104a483610528565b9250827fffffffffffffffffffffffffffffffffffffffffffffffffffffffffffffffff038211156104d9576104d8610532565b5b828201905092915050565b60006104ef82610508565b9050919050565b600061050182610508565b9050919050565b600073ffffffffffffffffffffffffffffffffffffffff82169050919050565b6000819050919050565b7f4e487b7100000000000000000000000000000000000000000000000000000000600052601160045260246000fd5b600080fd5b7f596f752063616e206e6f74207769746864726177000000000000000000000000600082015250565b610598816104f6565b81146105a357600080fd5b5056fea2646970667358221220c5066f5815f460f1b883ebf6654e2325d23fef70f46f18eee531a5d62c47fe4e64736f6c63430008070033",
			"opcodes": "PUSH1 0x80 PUSH1 0x40 MSTORE CALLVALUE DUP1 ISZERO PUSH2 0x10 JUMPI PUSH1 0x0 DUP1 REVERT JUMPDEST POP CALLER PUSH1 0x2 PUSH1 0x0 PUSH2 0x100 EXP DUP2 SLOAD DUP2 PUSH20 0xFFFFFFFFFFFFFFFFFFFFFFFFFFFFFFFFFFFFFFFF MUL NOT AND SWAP1 DUP4 PUSH20 0xFFFFFFFFFFFFFFFFFFFFFFFFFFFFFFFFFFFFFFFF AND MUL OR SWAP1 SSTORE POP PUSH2 0x5DC DUP1 PUSH2 0x61 PUSH1 0x0 CODECOPY PUSH1 0x0 RETURN INVALID PUSH1 0x80 PUSH1 0x40 MSTORE PUSH1 0x4 CALLDATASIZE LT PUSH2 0x7B JUMPI PUSH1 0x0 CALLDATALOAD PUSH1 0xE0 SHR DUP1 PUSH4 0x6D26EC18 GT PUSH2 0x4E JUMPI DUP1 PUSH4 0x6D26EC18 EQ PUSH2 0x128 JUMPI DUP1 PUSH4 0x8DA5CB5B EQ PUSH2 0x132 JUMPI DUP1 PUSH4 0xAC446002 EQ PUSH2 0x15D JUMPI DUP1 PUSH4 0xCE0617EC EQ PUSH2 0x174 JUMPI PUSH2 0x7B JUMP JUMPDEST DUP1 PUSH4 0xADEC93C EQ PUSH2 0x80 JUMPI DUP1 PUSH4 0xFF8D8A5 EQ PUSH2 0xA9 JUMPI DUP1 PUSH4 0x12065FE0 EQ PUSH2 0xD2 JUMPI DUP1 PUSH4 0x52A90C42 EQ PUSH2 0xFD JUMPI JUMPDEST PUSH1 0x0 DUP1 REVERT JUMPDEST CALLVALUE DUP1 ISZERO PUSH2 0x8C JUMPI PUSH1 0x0 DUP1 REVERT JUMPDEST POP PUSH2 0xA7 PUSH1 0x4 DUP1 CALLDATASIZE SUB DUP2 ADD SWAP1 PUSH2 0xA2 SWAP2 SWAP1 PUSH2 0x3B9 JUMP JUMPDEST PUSH2 0x19F JUMP JUMPDEST STOP JUMPDEST CALLVALUE DUP1 ISZERO PUSH2 0xB5 JUMPI PUSH1 0x0 DUP1 REVERT JUMPDEST POP PUSH2 0xD0 PUSH1 0x4 DUP1 CALLDATASIZE SUB DUP2 ADD SWAP1 PUSH2 0xCB SWAP2 SWAP1 PUSH2 0x3B9 JUMP JUMPDEST PUSH2 0x280 JUMP JUMPDEST STOP JUMPDEST CALLVALUE DUP1 ISZERO PUSH2 0xDE JUMPI PUSH1 0x0 DUP1 REVERT JUMPDEST POP PUSH2 0xE7 PUSH2 0x2DC JUMP JUMPDEST PUSH1 0x40 MLOAD PUSH2 0xF4 SWAP2 SWAP1 PUSH2 0x462 JUMP JUMPDEST PUSH1 0x40 MLOAD DUP1 SWAP2 SUB SWAP1 RETURN JUMPDEST CALLVALUE DUP1 ISZERO PUSH2 0x109 JUMPI PUSH1 0x0 DUP1 REVERT JUMPDEST POP PUSH2 0x112 PUSH2 0x2E4 JUMP JUMPDEST PUSH1 0x40 MLOAD PUSH2 0x11F SWAP2 SWAP1 PUSH2 0x462 JUMP JUMPDEST PUSH1 0x40 MLOAD DUP1 SWAP2 SUB SWAP1 RETURN JUMPDEST PUSH2 0x130 PUSH2 0x2EA JUMP JUMPDEST STOP JUMPDEST CALLVALUE DUP1 ISZERO PUSH2 0x13E JUMPI PUSH1 0x0 DUP1 REVERT JUMPDEST POP PUSH2 0x147 PUSH2 0x317 JUMP JUMPDEST PUSH1 0x40 MLOAD PUSH2 0x154 SWAP2 SWAP1 PUSH2 0x427 JUMP JUMPDEST PUSH1 0x40 MLOAD DUP1 SWAP2 SUB SWAP1 RETURN JUMPDEST CALLVALUE DUP1 ISZERO PUSH2 0x169 JUMPI PUSH1 0x0 DUP1 REVERT JUMPDEST POP PUSH2 0x172 PUSH2 0x33D JUMP JUMPDEST STOP JUMPDEST CALLVALUE DUP1 ISZERO PUSH2 0x180 JUMPI PUSH1 0x0 DUP1 REVERT JUMPDEST POP PUSH2 0x189 PUSH2 0x39E JUMP JUMPDEST PUSH1 0x40 MLOAD PUSH2 0x196 SWAP2 SWAP1 PUSH2 0x462 JUMP JUMPDEST PUSH1 0x40 MLOAD DUP1 SWAP2 SUB SWAP1 RETURN JUMPDEST CALLER PUSH20 0xFFFFFFFFFFFFFFFFFFFFFFFFFFFFFFFFFFFFFFFF AND PUSH1 0x2 PUSH1 0x0 SWAP1 SLOAD SWAP1 PUSH2 0x100 EXP SWAP1 DIV PUSH20 0xFFFFFFFFFFFFFFFFFFFFFFFFFFFFFFFFFFFFFFFF AND PUSH20 0xFFFFFFFFFFFFFFFFFFFFFFFFFFFFFFFFFFFFFFFF AND EQ PUSH2 0x22F JUMPI PUSH1 0x40 MLOAD PUSH32 0x8C379A000000000000000000000000000000000000000000000000000000000 DUP2 MSTORE PUSH1 0x4 ADD PUSH2 0x226 SWAP1 PUSH2 0x442 JUMP JUMPDEST PUSH1 0x40 MLOAD DUP1 SWAP2 SUB SWAP1 REVERT JUMPDEST DUP1 PUSH20 0xFFFFFFFFFFFFFFFFFFFFFFFFFFFFFFFFFFFFFFFF AND PUSH2 0x8FC PUSH2 0x251 PUSH2 0x2DC JUMP JUMPDEST SWAP1 DUP2 ISZERO MUL SWAP1 PUSH1 0x40 MLOAD PUSH1 0x0 PUSH1 0x40 MLOAD DUP1 DUP4 SUB DUP2 DUP6 DUP9 DUP9 CALL SWAP4 POP POP POP POP ISZERO DUP1 ISZERO PUSH2 0x27C JUMPI RETURNDATASIZE PUSH1 0x0 DUP1 RETURNDATACOPY RETURNDATASIZE PUSH1 0x0 REVERT JUMPDEST POP POP JUMP JUMPDEST TIMESTAMP PUSH1 0x1 SLOAD LT ISZERO PUSH2 0x2D9 JUMPI DUP1 PUSH20 0xFFFFFFFFFFFFFFFFFFFFFFFFFFFFFFFFFFFFFFFF AND PUSH2 0x8FC PUSH2 0x2AC PUSH2 0x2DC JUMP JUMPDEST SWAP1 DUP2 ISZERO MUL SWAP1 PUSH1 0x40 MLOAD PUSH1 0x0 PUSH1 0x40 MLOAD DUP1 DUP4 SUB DUP2 DUP6 DUP9 DUP9 CALL SWAP4 POP POP POP POP ISZERO DUP1 ISZERO PUSH2 0x2D7 JUMPI RETURNDATASIZE PUSH1 0x0 DUP1 RETURNDATACOPY RETURNDATASIZE PUSH1 0x0 REVERT JUMPDEST POP JUMPDEST POP JUMP JUMPDEST PUSH1 0x0 SELFBALANCE SWAP1 POP SWAP1 JUMP JUMPDEST PUSH1 0x0 SLOAD DUP2 JUMP JUMPDEST CALLVALUE PUSH1 0x0 DUP1 DUP3 DUP3 SLOAD PUSH2 0x2FB SWAP2 SWAP1 PUSH2 0x48E JUMP JUMPDEST SWAP3 POP POP DUP2 SWAP1 SSTORE POP PUSH1 0x3C TIMESTAMP PUSH2 0x30F SWAP2 SWAP1 PUSH2 0x48E JUMP JUMPDEST PUSH1 0x1 DUP2 SWAP1 SSTORE POP JUMP JUMPDEST PUSH1 0x2 PUSH1 0x0 SWAP1 SLOAD SWAP1 PUSH2 0x100 EXP SWAP1 DIV PUSH20 0xFFFFFFFFFFFFFFFFFFFFFFFFFFFFFFFFFFFFFFFF AND DUP2 JUMP JUMPDEST TIMESTAMP PUSH1 0x1 SLOAD LT ISZERO PUSH2 0x39C JUMPI PUSH1 0x0 CALLER SWAP1 POP DUP1 PUSH20 0xFFFFFFFFFFFFFFFFFFFFFFFFFFFFFFFFFFFFFFFF AND PUSH2 0x8FC PUSH2 0x36E PUSH2 0x2DC JUMP JUMPDEST SWAP1 DUP2 ISZERO MUL SWAP1 PUSH1 0x40 MLOAD PUSH1 0x0 PUSH1 0x40 MLOAD DUP1 DUP4 SUB DUP2 DUP6 DUP9 DUP9 CALL SWAP4 POP POP POP POP ISZERO DUP1 ISZERO PUSH2 0x399 JUMPI RETURNDATASIZE PUSH1 0x0 DUP1 RETURNDATACOPY RETURNDATASIZE PUSH1 0x0 REVERT JUMPDEST POP POP JUMPDEST JUMP JUMPDEST PUSH1 0x1 SLOAD DUP2 JUMP JUMPDEST PUSH1 0x0 DUP2 CALLDATALOAD SWAP1 POP PUSH2 0x3B3 DUP2 PUSH2 0x58F JUMP JUMPDEST SWAP3 SWAP2 POP POP JUMP JUMPDEST PUSH1 0x0 PUSH1 0x20 DUP3 DUP5 SUB SLT ISZERO PUSH2 0x3CF JUMPI PUSH2 0x3CE PUSH2 0x561 JUMP JUMPDEST JUMPDEST PUSH1 0x0 PUSH2 0x3DD DUP5 DUP3 DUP6 ADD PUSH2 0x3A4 JUMP JUMPDEST SWAP2 POP POP SWAP3 SWAP2 POP POP JUMP JUMPDEST PUSH2 0x3EF DUP2 PUSH2 0x4E4 JUMP JUMPDEST DUP3 MSTORE POP POP JUMP JUMPDEST PUSH1 0x0 PUSH2 0x402 PUSH1 0x14 DUP4 PUSH2 0x47D JUMP JUMPDEST SWAP2 POP PUSH2 0x40D DUP3 PUSH2 0x566 JUMP JUMPDEST PUSH1 0x20 DUP3 ADD SWAP1 POP SWAP2 SWAP1 POP JUMP JUMPDEST PUSH2 0x421 DUP2 PUSH2 0x528 JUMP JUMPDEST DUP3 MSTORE POP POP JUMP JUMPDEST PUSH1 0x0 PUSH1 0x20 DUP3 ADD SWAP1 POP PUSH2 0x43C PUSH1 0x0 DUP4 ADD DUP5 PUSH2 0x3E6 JUMP JUMPDEST SWAP3 SWAP2 POP POP JUMP JUMPDEST PUSH1 0x0 PUSH1 0x20 DUP3 ADD SWAP1 POP DUP2 DUP2 SUB PUSH1 0x0 DUP4 ADD MSTORE PUSH2 0x45B DUP2 PUSH2 0x3F5 JUMP JUMPDEST SWAP1 POP SWAP2 SWAP1 POP JUMP JUMPDEST PUSH1 0x0 PUSH1 0x20 DUP3 ADD SWAP1 POP PUSH2 0x477 PUSH1 0x0 DUP4 ADD DUP5 PUSH2 0x418 JUMP JUMPDEST SWAP3 SWAP2 POP POP JUMP JUMPDEST PUSH1 0x0 DUP3 DUP3 MSTORE PUSH1 0x20 DUP3 ADD SWAP1 POP SWAP3 SWAP2 POP POP JUMP JUMPDEST PUSH1 0x0 PUSH2 0x499 DUP3 PUSH2 0x528 JUMP JUMPDEST SWAP2 POP PUSH2 0x4A4 DUP4 PUSH2 0x528 JUMP JUMPDEST SWAP3 POP DUP3 PUSH32 0xFFFFFFFFFFFFFFFFFFFFFFFFFFFFFFFFFFFFFFFFFFFFFFFFFFFFFFFFFFFFFFFF SUB DUP3 GT ISZERO PUSH2 0x4D9 JUMPI PUSH2 0x4D8 PUSH2 0x532 JUMP JUMPDEST JUMPDEST DUP3 DUP3 ADD SWAP1 POP SWAP3 SWAP2 POP POP JUMP JUMPDEST PUSH1 0x0 PUSH2 0x4EF DUP3 PUSH2 0x508 JUMP JUMPDEST SWAP1 POP SWAP2 SWAP1 POP JUMP JUMPDEST PUSH1 0x0 PUSH2 0x501 DUP3 PUSH2 0x508 JUMP JUMPDEST SWAP1 POP SWAP2 SWAP1 POP JUMP JUMPDEST PUSH1 0x0 PUSH20 0xFFFFFFFFFFFFFFFFFFFFFFFFFFFFFFFFFFFFFFFF DUP3 AND SWAP1 POP SWAP2 SWAP1 POP JUMP JUMPDEST PUSH1 0x0 DUP2 SWAP1 POP SWAP2 SWAP1 POP JUMP JUMPDEST PUSH32 0x4E487B7100000000000000000000000000000000000000000000000000000000 PUSH1 0x0 MSTORE PUSH1 0x11 PUSH1 0x4 MSTORE PUSH1 0x24 PUSH1 0x0 REVERT JUMPDEST PUSH1 0x0 DUP1 REVERT JUMPDEST PUSH32 0x596F752063616E206E6F74207769746864726177000000000000000000000000 PUSH1 0x0 DUP3 ADD MSTORE POP JUMP JUMPDEST PUSH2 0x598 DUP2 PUSH2 0x4F6 JUMP JUMPDEST DUP2 EQ PUSH2 0x5A3 JUMPI PUSH1 0x0 DUP1 REVERT JUMPDEST POP JUMP INVALID LOG2 PUSH5 0x6970667358 0x22 SLT KECCAK256 0xC5 MOD PUSH16 0x5815F460F1B883EBF6654E2325D23FEF PUSH17 0xF46F18EEE531A5D62C47FE4E64736F6C63 NUMBER STOP ADDMOD SMOD STOP CALLER "
		},
		"gasEstimates": {
			"creation": {
				"codeDepositCost": "300000",
				"executionCost": "24603",
				"totalCost": "324603"
			},
			"external": {
				"balanceReceived()": "2496",
				"getBalance()": "384",
				"lockedUntil()": "2495",
				"owner()": "2536",
				"receiveMoney()": "infinite",
				"withdrawAllMoney(address)": "infinite",
				"withdrawMoney()": "infinite",
				"withdrawMoneyTo(address)": "infinite"
			}
		},
		"methodIdentifiers": {
			"balanceReceived()": "52a90c42",
			"getBalance()": "12065fe0",
			"lockedUntil()": "ce0617ec",
			"owner()": "8da5cb5b",
			"receiveMoney()": "6d26ec18",
			"withdrawAllMoney(address)": "0adec93c",
			"withdrawMoney()": "ac446002",
			"withdrawMoneyTo(address)": "0ff8d8a5"
		}
	},
	"abi": [
		{
			"inputs": [],
			"stateMutability": "nonpayable",
			"type": "constructor"
		},
		{
			"inputs": [],
			"name": "balanceReceived",
			"outputs": [
				{
					"internalType": "uint256",
					"name": "",
					"type": "uint256"
				}
			],
			"stateMutability": "view",
			"type": "function"
		},
		{
			"inputs": [],
			"name": "getBalance",
			"outputs": [
				{
					"internalType": "uint256",
					"name": "",
					"type": "uint256"
				}
			],
			"stateMutability": "view",
			"type": "function"
		},
		{
			"inputs": [],
			"name": "lockedUntil",
			"outputs": [
				{
					"internalType": "uint256",
					"name": "",
					"type": "uint256"
				}
			],
			"stateMutability": "view",
			"type": "function"
		},
		{
			"inputs": [],
			"name": "owner",
			"outputs": [
				{
					"internalType": "address",
					"name": "",
					"type": "address"
				}
			],
			"stateMutability": "view",
			"type": "function"
		},
		{
			"inputs": [],
			"name": "receiveMoney",
			"outputs": [],
			"stateMutability": "payable",
			"type": "function"
		},
		{
			"inputs": [
				{
					"internalType": "address payable",
					"name": "_to",
					"type": "address"
				}
			],
			"name": "withdrawAllMoney",
			"outputs": [],
			"stateMutability": "nonpayable",
			"type": "function"
		},
		{
			"inputs": [],
			"name": "withdrawMoney",
			"outputs": [],
			"stateMutability": "nonpayable",
			"type": "function"
		},
		{
			"inputs": [
				{
					"internalType": "address payable",
					"name": "_to",
					"type": "address"
				}
			],
			"name": "withdrawMoneyTo",
			"outputs": [],
			"stateMutability": "nonpayable",
			"type": "function"
		}
	]
}