{
	"data": {
		"bytecode": {
			"linkReferences": {},
			"object": "608060405234801561001057600080fd5b5061074c806100206000396000f3fe608060405234801561001057600080fd5b50600436106100365760003560e01c80636f2be7281461003b578063e2179b8e14610057575b600080fd5b6100556004803603810190610050919061030b565b610077565b005b61005f61007c565b60405161006e93929190610539565b60405180910390f35b505050565b610084610093565b61008c6100b4565b6000909192565b60405180606001604052806000815260200160608152602001606081525090565b604051806040016040528060008152602001600081525090565b60006100e16100dc8461059c565b610577565b90508083825260208201905082856040860282011115610104576101036106df565b5b60005b85811015610134578161011a88826102a6565b845260208401935060408301925050600181019050610107565b5050509392505050565b600061015161014c846105c8565b610577565b90508083825260208201905082856020860282011115610174576101736106df565b5b60005b858110156101a4578161018a88826102f6565b845260208401935060208301925050600181019050610177565b5050509392505050565b600082601f8301126101c3576101c26106d0565b5b81356101d38482602086016100ce565b91505092915050565b600082601f8301126101f1576101f06106d0565b5b813561020184826020860161013e565b91505092915050565b6000606082840312156102205761021f6106d5565b5b61022a6060610577565b9050600061023a848285016102f6565b600083015250602082013567ffffffffffffffff81111561025e5761025d6106da565b5b61026a848285016101dc565b602083015250604082013567ffffffffffffffff81111561028e5761028d6106da565b5b61029a848285016101ae565b60408301525092915050565b6000604082840312156102bc576102bb6106d5565b5b6102c66040610577565b905060006102d6848285016102f6565b60008301525060206102ea848285016102f6565b60208301525092915050565b600081359050610305816106ff565b92915050565b600080600060808486031215610324576103236106e9565b5b600084013567ffffffffffffffff811115610342576103416106e4565b5b61034e8682870161020a565b935050602061035f868287016102a6565b9250506060610370868287016102f6565b9150509250925092565b600061038683836104bd565b60408301905092915050565b600061039e838361051b565b60208301905092915050565b60006103b582610614565b6103bf8185610644565b93506103ca836105f4565b8060005b838110156103fb5781516103e2888261037a565b97506103ed8361062a565b9250506001810190506103ce565b5085935050505092915050565b60006104138261061f565b61041d8185610655565b935061042883610604565b8060005b838110156104595781516104408882610392565b975061044b83610637565b92505060018101905061042c565b5085935050505092915050565b600060608301600083015161047e600086018261051b565b50602083015184820360208601526104968282610408565b915050604083015184820360408601526104b082826103aa565b9150508091505092915050565b6040820160008201516104d3600085018261051b565b5060208201516104e6602085018261051b565b50505050565b604082016000820151610502600085018261051b565b506020820151610515602085018261051b565b50505050565b61052481610666565b82525050565b61053381610666565b82525050565b600060808201905081810360008301526105538186610466565b905061056260208301856104ec565b61056f606083018461052a565b949350505050565b6000610581610592565b905061058d8282610670565b919050565b6000604051905090565b600067ffffffffffffffff8211156105b7576105b66106a1565b5b602082029050602081019050919050565b600067ffffffffffffffff8211156105e3576105e26106a1565b5b602082029050602081019050919050565b6000819050602082019050919050565b6000819050602082019050919050565b600081519050919050565b600081519050919050565b6000602082019050919050565b6000602082019050919050565b600082825260208201905092915050565b600082825260208201905092915050565b6000819050919050565b610679826106ee565b810181811067ffffffffffffffff82111715610698576106976106a1565b5b80604052505050565b7f4e487b7100000000000000000000000000000000000000000000000000000000600052604160045260246000fd5b600080fd5b600080fd5b600080fd5b600080fd5b600080fd5b600080fd5b6000601f19601f8301169050919050565b61070881610666565b811461071357600080fd5b5056fea264697066735822122049358b804f2e0edc84a02e08b9d895bb4616955eaba4430897ea45737521a26864736f6c63430008070033",
			"opcodes": "PUSH1 0x80 PUSH1 0x40 MSTORE CALLVALUE DUP1 ISZERO PUSH2 0x10 JUMPI PUSH1 0x0 DUP1 REVERT JUMPDEST POP PUSH2 0x74C DUP1 PUSH2 0x20 PUSH1 0x0 CODECOPY PUSH1 0x0 RETURN INVALID PUSH1 0x80 PUSH1 0x40 MSTORE CALLVALUE DUP1 ISZERO PUSH2 0x10 JUMPI PUSH1 0x0 DUP1 REVERT JUMPDEST POP PUSH1 0x4 CALLDATASIZE LT PUSH2 0x36 JUMPI PUSH1 0x0 CALLDATALOAD PUSH1 0xE0 SHR DUP1 PUSH4 0x6F2BE728 EQ PUSH2 0x3B JUMPI DUP1 PUSH4 0xE2179B8E EQ PUSH2 0x57 JUMPI JUMPDEST PUSH1 0x0 DUP1 REVERT JUMPDEST PUSH2 0x55 PUSH1 0x4 DUP1 CALLDATASIZE SUB DUP2 ADD SWAP1 PUSH2 0x50 SWAP2 SWAP1 PUSH2 0x30B JUMP JUMPDEST PUSH2 0x77 JUMP JUMPDEST STOP JUMPDEST PUSH2 0x5F PUSH2 0x7C JUMP JUMPDEST PUSH1 0x40 MLOAD PUSH2 0x6E SWAP4 SWAP3 SWAP2 SWAP1 PUSH2 0x539 JUMP JUMPDEST PUSH1 0x40 MLOAD DUP1 SWAP2 SUB SWAP1 RETURN JUMPDEST POP POP POP JUMP JUMPDEST PUSH2 0x84 PUSH2 0x93 JUMP JUMPDEST PUSH2 0x8C PUSH2 0xB4 JUMP JUMPDEST PUSH1 0x0 SWAP1 SWAP2 SWAP3 JUMP JUMPDEST PUSH1 0x40 MLOAD DUP1 PUSH1 0x60 ADD PUSH1 0x40 MSTORE DUP1 PUSH1 0x0 DUP2 MSTORE PUSH1 0x20 ADD PUSH1 0x60 DUP2 MSTORE PUSH1 0x20 ADD PUSH1 0x60 DUP2 MSTORE POP SWAP1 JUMP JUMPDEST PUSH1 0x40 MLOAD DUP1 PUSH1 0x40 ADD PUSH1 0x40 MSTORE DUP1 PUSH1 0x0 DUP2 MSTORE PUSH1 0x20 ADD PUSH1 0x0 DUP2 MSTORE POP SWAP1 JUMP JUMPDEST PUSH1 0x0 PUSH2 0xE1 PUSH2 0xDC DUP5 PUSH2 0x59C JUMP JUMPDEST PUSH2 0x577 JUMP JUMPDEST SWAP1 POP DUP1 DUP4 DUP3 MSTORE PUSH1 0x20 DUP3 ADD SWAP1 POP DUP3 DUP6 PUSH1 0x40 DUP7 MUL DUP3 ADD GT ISZERO PUSH2 0x104 JUMPI PUSH2 0x103 PUSH2 0x6DF JUMP JUMPDEST JUMPDEST PUSH1 0x0 JUMPDEST DUP6 DUP2 LT ISZERO PUSH2 0x134 JUMPI DUP2 PUSH2 0x11A DUP9 DUP3 PUSH2 0x2A6 JUMP JUMPDEST DUP5 MSTORE PUSH1 0x20 DUP5 ADD SWAP4 POP PUSH1 0x40 DUP4 ADD SWAP3 POP POP PUSH1 0x1 DUP2 ADD SWAP1 POP PUSH2 0x107 JUMP JUMPDEST POP POP POP SWAP4 SWAP3 POP POP POP JUMP JUMPDEST PUSH1 0x0 PUSH2 0x151 PUSH2 0x14C DUP5 PUSH2 0x5C8 JUMP JUMPDEST PUSH2 0x577 JUMP JUMPDEST SWAP1 POP DUP1 DUP4 DUP3 MSTORE PUSH1 0x20 DUP3 ADD SWAP1 POP DUP3 DUP6 PUSH1 0x20 DUP7 MUL DUP3 ADD GT ISZERO PUSH2 0x174 JUMPI PUSH2 0x173 PUSH2 0x6DF JUMP JUMPDEST JUMPDEST PUSH1 0x0 JUMPDEST DUP6 DUP2 LT ISZERO PUSH2 0x1A4 JUMPI DUP2 PUSH2 0x18A DUP9 DUP3 PUSH2 0x2F6 JUMP JUMPDEST DUP5 MSTORE PUSH1 0x20 DUP5 ADD SWAP4 POP PUSH1 0x20 DUP4 ADD SWAP3 POP POP PUSH1 0x1 DUP2 ADD SWAP1 POP PUSH2 0x177 JUMP JUMPDEST POP POP POP SWAP4 SWAP3 POP POP POP JUMP JUMPDEST PUSH1 0x0 DUP3 PUSH1 0x1F DUP4 ADD SLT PUSH2 0x1C3 JUMPI PUSH2 0x1C2 PUSH2 0x6D0 JUMP JUMPDEST JUMPDEST DUP2 CALLDATALOAD PUSH2 0x1D3 DUP5 DUP3 PUSH1 0x20 DUP7 ADD PUSH2 0xCE JUMP JUMPDEST SWAP2 POP POP SWAP3 SWAP2 POP POP JUMP JUMPDEST PUSH1 0x0 DUP3 PUSH1 0x1F DUP4 ADD SLT PUSH2 0x1F1 JUMPI PUSH2 0x1F0 PUSH2 0x6D0 JUMP JUMPDEST JUMPDEST DUP2 CALLDATALOAD PUSH2 0x201 DUP5 DUP3 PUSH1 0x20 DUP7 ADD PUSH2 0x13E JUMP JUMPDEST SWAP2 POP POP SWAP3 SWAP2 POP POP JUMP JUMPDEST PUSH1 0x0 PUSH1 0x60 DUP3 DUP5 SUB SLT ISZERO PUSH2 0x220 JUMPI PUSH2 0x21F PUSH2 0x6D5 JUMP JUMPDEST JUMPDEST PUSH2 0x22A PUSH1 0x60 PUSH2 0x577 JUMP JUMPDEST SWAP1 POP PUSH1 0x0 PUSH2 0x23A DUP5 DUP3 DUP6 ADD PUSH2 0x2F6 JUMP JUMPDEST PUSH1 0x0 DUP4 ADD MSTORE POP PUSH1 0x20 DUP3 ADD CALLDATALOAD PUSH8 0xFFFFFFFFFFFFFFFF DUP2 GT ISZERO PUSH2 0x25E JUMPI PUSH2 0x25D PUSH2 0x6DA JUMP JUMPDEST JUMPDEST PUSH2 0x26A DUP5 DUP3 DUP6 ADD PUSH2 0x1DC JUMP JUMPDEST PUSH1 0x20 DUP4 ADD MSTORE POP PUSH1 0x40 DUP3 ADD CALLDATALOAD PUSH8 0xFFFFFFFFFFFFFFFF DUP2 GT ISZERO PUSH2 0x28E JUMPI PUSH2 0x28D PUSH2 0x6DA JUMP JUMPDEST JUMPDEST PUSH2 0x29A DUP5 DUP3 DUP6 ADD PUSH2 0x1AE JUMP JUMPDEST PUSH1 0x40 DUP4 ADD MSTORE POP SWAP3 SWAP2 POP POP JUMP JUMPDEST PUSH1 0x0 PUSH1 0x40 DUP3 DUP5 SUB SLT ISZERO PUSH2 0x2BC JUMPI PUSH2 0x2BB PUSH2 0x6D5 JUMP JUMPDEST JUMPDEST PUSH2 0x2C6 PUSH1 0x40 PUSH2 0x577 JUMP JUMPDEST SWAP1 POP PUSH1 0x0 PUSH2 0x2D6 DUP5 DUP3 DUP6 ADD PUSH2 0x2F6 JUMP JUMPDEST PUSH1 0x0 DUP4 ADD MSTORE POP PUSH1 0x20 PUSH2 0x2EA DUP5 DUP3 DUP6 ADD PUSH2 0x2F6 JUMP JUMPDEST PUSH1 0x20 DUP4 ADD MSTORE POP SWAP3 SWAP2 POP POP JUMP JUMPDEST PUSH1 0x0 DUP2 CALLDATALOAD SWAP1 POP PUSH2 0x305 DUP2 PUSH2 0x6FF JUMP JUMPDEST SWAP3 SWAP2 POP POP JUMP JUMPDEST PUSH1 0x0 DUP1 PUSH1 0x0 PUSH1 0x80 DUP5 DUP7 SUB SLT ISZERO PUSH2 0x324 JUMPI PUSH2 0x323 PUSH2 0x6E9 JUMP JUMPDEST JUMPDEST PUSH1 0x0 DUP5 ADD CALLDATALOAD PUSH8 0xFFFFFFFFFFFFFFFF DUP2 GT ISZERO PUSH2 0x342 JUMPI PUSH2 0x341 PUSH2 0x6E4 JUMP JUMPDEST JUMPDEST PUSH2 0x34E DUP7 DUP3 DUP8 ADD PUSH2 0x20A JUMP JUMPDEST SWAP4 POP POP PUSH1 0x20 PUSH2 0x35F DUP7 DUP3 DUP8 ADD PUSH2 0x2A6 JUMP JUMPDEST SWAP3 POP POP PUSH1 0x60 PUSH2 0x370 DUP7 DUP3 DUP8 ADD PUSH2 0x2F6 JUMP JUMPDEST SWAP2 POP POP SWAP3 POP SWAP3 POP SWAP3 JUMP JUMPDEST PUSH1 0x0 PUSH2 0x386 DUP4 DUP4 PUSH2 0x4BD JUMP JUMPDEST PUSH1 0x40 DUP4 ADD SWAP1 POP SWAP3 SWAP2 POP POP JUMP JUMPDEST PUSH1 0x0 PUSH2 0x39E DUP4 DUP4 PUSH2 0x51B JUMP JUMPDEST PUSH1 0x20 DUP4 ADD SWAP1 POP SWAP3 SWAP2 POP POP JUMP JUMPDEST PUSH1 0x0 PUSH2 0x3B5 DUP3 PUSH2 0x614 JUMP JUMPDEST PUSH2 0x3BF DUP2 DUP6 PUSH2 0x644 JUMP JUMPDEST SWAP4 POP PUSH2 0x3CA DUP4 PUSH2 0x5F4 JUMP JUMPDEST DUP1 PUSH1 0x0 JUMPDEST DUP4 DUP2 LT ISZERO PUSH2 0x3FB JUMPI DUP2 MLOAD PUSH2 0x3E2 DUP9 DUP3 PUSH2 0x37A JUMP JUMPDEST SWAP8 POP PUSH2 0x3ED DUP4 PUSH2 0x62A JUMP JUMPDEST SWAP3 POP POP PUSH1 0x1 DUP2 ADD SWAP1 POP PUSH2 0x3CE JUMP JUMPDEST POP DUP6 SWAP4 POP POP POP POP SWAP3 SWAP2 POP POP JUMP JUMPDEST PUSH1 0x0 PUSH2 0x413 DUP3 PUSH2 0x61F JUMP JUMPDEST PUSH2 0x41D DUP2 DUP6 PUSH2 0x655 JUMP JUMPDEST SWAP4 POP PUSH2 0x428 DUP4 PUSH2 0x604 JUMP JUMPDEST DUP1 PUSH1 0x0 JUMPDEST DUP4 DUP2 LT ISZERO PUSH2 0x459 JUMPI DUP2 MLOAD PUSH2 0x440 DUP9 DUP3 PUSH2 0x392 JUMP JUMPDEST SWAP8 POP PUSH2 0x44B DUP4 PUSH2 0x637 JUMP JUMPDEST SWAP3 POP POP PUSH1 0x1 DUP2 ADD SWAP1 POP PUSH2 0x42C JUMP JUMPDEST POP DUP6 SWAP4 POP POP POP POP SWAP3 SWAP2 POP POP JUMP JUMPDEST PUSH1 0x0 PUSH1 0x60 DUP4 ADD PUSH1 0x0 DUP4 ADD MLOAD PUSH2 0x47E PUSH1 0x0 DUP7 ADD DUP3 PUSH2 0x51B JUMP JUMPDEST POP PUSH1 0x20 DUP4 ADD MLOAD DUP5 DUP3 SUB PUSH1 0x20 DUP7 ADD MSTORE PUSH2 0x496 DUP3 DUP3 PUSH2 0x408 JUMP JUMPDEST SWAP2 POP POP PUSH1 0x40 DUP4 ADD MLOAD DUP5 DUP3 SUB PUSH1 0x40 DUP7 ADD MSTORE PUSH2 0x4B0 DUP3 DUP3 PUSH2 0x3AA JUMP JUMPDEST SWAP2 POP POP DUP1 SWAP2 POP POP SWAP3 SWAP2 POP POP JUMP JUMPDEST PUSH1 0x40 DUP3 ADD PUSH1 0x0 DUP3 ADD MLOAD PUSH2 0x4D3 PUSH1 0x0 DUP6 ADD DUP3 PUSH2 0x51B JUMP JUMPDEST POP PUSH1 0x20 DUP3 ADD MLOAD PUSH2 0x4E6 PUSH1 0x20 DUP6 ADD DUP3 PUSH2 0x51B JUMP JUMPDEST POP POP POP POP JUMP JUMPDEST PUSH1 0x40 DUP3 ADD PUSH1 0x0 DUP3 ADD MLOAD PUSH2 0x502 PUSH1 0x0 DUP6 ADD DUP3 PUSH2 0x51B JUMP JUMPDEST POP PUSH1 0x20 DUP3 ADD MLOAD PUSH2 0x515 PUSH1 0x20 DUP6 ADD DUP3 PUSH2 0x51B JUMP JUMPDEST POP POP POP POP JUMP JUMPDEST PUSH2 0x524 DUP2 PUSH2 0x666 JUMP JUMPDEST DUP3 MSTORE POP POP JUMP JUMPDEST PUSH2 0x533 DUP2 PUSH2 0x666 JUMP JUMPDEST DUP3 MSTORE POP POP JUMP JUMPDEST PUSH1 0x0 PUSH1 0x80 DUP3 ADD SWAP1 POP DUP2 DUP2 SUB PUSH1 0x0 DUP4 ADD MSTORE PUSH2 0x553 DUP2 DUP7 PUSH2 0x466 JUMP JUMPDEST SWAP1 POP PUSH2 0x562 PUSH1 0x20 DUP4 ADD DUP6 PUSH2 0x4EC JUMP JUMPDEST PUSH2 0x56F PUSH1 0x60 DUP4 ADD DUP5 PUSH2 0x52A JUMP JUMPDEST SWAP5 SWAP4 POP POP POP POP JUMP JUMPDEST PUSH1 0x0 PUSH2 0x581 PUSH2 0x592 JUMP JUMPDEST SWAP1 POP PUSH2 0x58D DUP3 DUP3 PUSH2 0x670 JUMP JUMPDEST SWAP2 SWAP1 POP JUMP JUMPDEST PUSH1 0x0 PUSH1 0x40 MLOAD SWAP1 POP SWAP1 JUMP JUMPDEST PUSH1 0x0 PUSH8 0xFFFFFFFFFFFFFFFF DUP3 GT ISZERO PUSH2 0x5B7 JUMPI PUSH2 0x5B6 PUSH2 0x6A1 JUMP JUMPDEST JUMPDEST PUSH1 0x20 DUP3 MUL SWAP1 POP PUSH1 0x20 DUP2 ADD SWAP1 POP SWAP2 SWAP1 POP JUMP JUMPDEST PUSH1 0x0 PUSH8 0xFFFFFFFFFFFFFFFF DUP3 GT ISZERO PUSH2 0x5E3 JUMPI PUSH2 0x5E2 PUSH2 0x6A1 JUMP JUMPDEST JUMPDEST PUSH1 0x20 DUP3 MUL SWAP1 POP PUSH1 0x20 DUP2 ADD SWAP1 POP SWAP2 SWAP1 POP JUMP JUMPDEST PUSH1 0x0 DUP2 SWAP1 POP PUSH1 0x20 DUP3 ADD SWAP1 POP SWAP2 SWAP1 POP JUMP JUMPDEST PUSH1 0x0 DUP2 SWAP1 POP PUSH1 0x20 DUP3 ADD SWAP1 POP SWAP2 SWAP1 POP JUMP JUMPDEST PUSH1 0x0 DUP2 MLOAD SWAP1 POP SWAP2 SWAP1 POP JUMP JUMPDEST PUSH1 0x0 DUP2 MLOAD SWAP1 POP SWAP2 SWAP1 POP JUMP JUMPDEST PUSH1 0x0 PUSH1 0x20 DUP3 ADD SWAP1 POP SWAP2 SWAP1 POP JUMP JUMPDEST PUSH1 0x0 PUSH1 0x20 DUP3 ADD SWAP1 POP SWAP2 SWAP1 POP JUMP JUMPDEST PUSH1 0x0 DUP3 DUP3 MSTORE PUSH1 0x20 DUP3 ADD SWAP1 POP SWAP3 SWAP2 POP POP JUMP JUMPDEST PUSH1 0x0 DUP3 DUP3 MSTORE PUSH1 0x20 DUP3 ADD SWAP1 POP SWAP3 SWAP2 POP POP JUMP JUMPDEST PUSH1 0x0 DUP2 SWAP1 POP SWAP2 SWAP1 POP JUMP JUMPDEST PUSH2 0x679 DUP3 PUSH2 0x6EE JUMP JUMPDEST DUP2 ADD DUP2 DUP2 LT PUSH8 0xFFFFFFFFFFFFFFFF DUP3 GT OR ISZERO PUSH2 0x698 JUMPI PUSH2 0x697 PUSH2 0x6A1 JUMP JUMPDEST JUMPDEST DUP1 PUSH1 0x40 MSTORE POP POP POP JUMP JUMPDEST PUSH32 0x4E487B7100000000000000000000000000000000000000000000000000000000 PUSH1 0x0 MSTORE PUSH1 0x41 PUSH1 0x4 MSTORE PUSH1 0x24 PUSH1 0x0 REVERT JUMPDEST PUSH1 0x0 DUP1 REVERT JUMPDEST PUSH1 0x0 DUP1 REVERT JUMPDEST PUSH1 0x0 DUP1 REVERT JUMPDEST PUSH1 0x0 DUP1 REVERT JUMPDEST PUSH1 0x0 DUP1 REVERT JUMPDEST PUSH1 0x0 DUP1 REVERT JUMPDEST PUSH1 0x0 PUSH1 0x1F NOT PUSH1 0x1F DUP4 ADD AND SWAP1 POP SWAP2 SWAP1 POP JUMP JUMPDEST PUSH2 0x708 DUP2 PUSH2 0x666 JUMP JUMPDEST DUP2 EQ PUSH2 0x713 JUMPI PUSH1 0x0 DUP1 REVERT JUMPDEST POP JUMP INVALID LOG2 PUSH5 0x6970667358 0x22 SLT KECCAK256 0x49 CALLDATALOAD DUP12 DUP1 0x4F 0x2E 0xE 0xDC DUP5 LOG0 0x2E ADDMOD 0xB9 0xD8 SWAP6 0xBB CHAINID AND SWAP6 0x5E 0xAB LOG4 NUMBER ADDMOD SWAP8 0xEA GASLIMIT PUSH20 0x7521A26864736F6C634300080700330000000000 "
		},
		"gasEstimates": {
			"creation": {
				"codeDepositCost": "373600",
				"executionCost": "411",
				"totalCost": "374011"
			},
			"external": {
				"f((uint256,uint256[],(uint256,uint256)[]),(uint256,uint256),uint256)": "infinite",
				"g()": "infinite"
			}
		},
		"methodIdentifiers": {
			"f((uint256,uint256[],(uint256,uint256)[]),(uint256,uint256),uint256)": "6f2be728",
			"g()": "e2179b8e"
		}
	},
	"abi": [
		{
			"inputs": [
				{
					"components": [
						{
							"internalType": "uint256",
							"name": "a",
							"type": "uint256"
						},
						{
							"internalType": "uint256[]",
							"name": "b",
							"type": "uint256[]"
						},
						{
							"components": [
								{
									"internalType": "uint256",
									"name": "x",
									"type": "uint256"
								},
								{
									"internalType": "uint256",
									"name": "y",
									"type": "uint256"
								}
							],
							"internalType": "struct Test.T[]",
							"name": "c",
							"type": "tuple[]"
						}
					],
					"internalType": "struct Test.S",
					"name": "",
					"type": "tuple"
				},
				{
					"components": [
						{
							"internalType": "uint256",
							"name": "x",
							"type": "uint256"
						},
						{
							"internalType": "uint256",
							"name": "y",
							"type": "uint256"
						}
					],
					"internalType": "struct Test.T",
					"name": "",
					"type": "tuple"
				},
				{
					"internalType": "uint256",
					"name": "",
					"type": "uint256"
				}
			],
			"name": "f",
			"outputs": [],
			"stateMutability": "pure",
			"type": "function"
		},
		{
			"inputs": [],
			"name": "g",
			"outputs": [
				{
					"components": [
						{
							"internalType": "uint256",
							"name": "a",
							"type": "uint256"
						},
						{
							"internalType": "uint256[]",
							"name": "b",
							"type": "uint256[]"
						},
						{
							"components": [
								{
									"internalType": "uint256",
									"name": "x",
									"type": "uint256"
								},
								{
									"internalType": "uint256",
									"name": "y",
									"type": "uint256"
								}
							],
							"internalType": "struct Test.T[]",
							"name": "c",
							"type": "tuple[]"
						}
					],
					"internalType": "struct Test.S",
					"name": "",
					"type": "tuple"
				},
				{
					"components": [
						{
							"internalType": "uint256",
							"name": "x",
							"type": "uint256"
						},
						{
							"internalType": "uint256",
							"name": "y",
							"type": "uint256"
						}
					],
					"internalType": "struct Test.T",
					"name": "",
					"type": "tuple"
				},
				{
					"internalType": "uint256",
					"name": "",
					"type": "uint256"
				}
			],
			"stateMutability": "pure",
			"type": "function"
		}
	]
}